:100000000C945D000C9485000C9485000C94850084
:100010000C9485000C9485000C9485000C9485004C
:100020000C9485000C9485000C9485000C9485003C
:100030000C9485000C9485000C9485000C9485002C
:100040000C94CA020C9485000C9498020C947202D1
:100050000C9485000C9485000C9485000C9485000C
:100060000C9485000C94850000000008000201003B
:100070000003040700000000000000000000000072
:10008000250028002B0000000000240027002A0083
:10009000040404040404040402020202020203032E
:1000A0000303030301020408102040800102040836
:1000B0001020010204081020440411241FBECFEFB9
:1000C000D8E0DEBFCDBF11E0A0E0B1E0E6E3F9E0AB
:1000D00002C005900D92A631B107D9F721E0A6E143
:1000E000B1E001C01D92AE3BB207E1F710E0CDE5F3
:1000F000D0E004C02197FE010E949304CC35D107C3
:10010000C9F70E9414030C9499040C94000090E029
:10011000FC01EC55FF4F249180579F4FFC018491C7
:10012000882399F090E0880F991FFC01EA57FF4F50
:10013000A591B491FC01E458FF4F859194918FB73C
:10014000F894EC91E22BEC938FBF0895AF92BF929D
:10015000CF92DF92EF92FF920F931F93CF93DF9393
:100160006C017B018B01040F151FEB015E01AE18C2
:10017000BF08C017D10759F06991D601ED91FC91E4
:100180000190F081E02DC6010995892B79F7C50111
:10019000DF91CF911F910F91FF90EF90DF90CF9063
:1001A000BF90AF900895FC01538D448D252F30E012
:1001B000842F90E0821B930B541710F0CF96089574
:1001C00001970895FC01918D828D981761F0A28DA1
:1001D000AE0FBF2FB11D5D968C91928D9F5F9F7367
:1001E000928F90E008958FEF9FEF0895FC01918D1D
:1001F000828D981731F0828DE80FF11D858D90E08A
:1002000008958FEF9FEF0895FC01918D228D892F26
:1002100090E0805C9F4F821B91098F73992708950E
:1002200081E291E00E94040121E0892B09F420E0A1
:10023000822F089580E090E0892B29F00E94100120
:1002400081110C9400000895FC01A48DA80FB92F12
:10025000B11DA35ABF4F2C91848D90E001968F73EE
:100260009927848FA689B7892C93A089B1898C910D
:10027000837080648C93938D848D981306C002885C
:10028000F389E02D80818F7D80830895EF92FF9226
:100290000F931F93CF93DF93EC0181E0888F9B8DA9
:1002A0008C8D98131AC0E889F989808185FF15C063
:1002B0009FB7F894EE89FF896083E889F989808186
:1002C0008370806480839FBF81E090E0DF91CF9155
:1002D0001F910F91FF90EF900895F62E0B8D10E077
:1002E0000F5F1F4F0F731127E02E8C8D8E110CC0E6
:1002F0000FB607FCFACFE889F989808185FFF5CF31
:10030000CE010E942401F1CFEB8DEC0FFD2FF11DEA
:10031000E35AFF4FF0829FB7F8940B8FEA89FB896D
:1003200080818062CFCFCF93DF93EC01888D8823CB
:10033000B9F0AA89BB89E889F9898C9185FD03C048
:10034000808186FD0DC00FB607FCF7CF8C9185FF2D
:10035000F2CF808185FFEDCFCE010E942401E9CF4D
:10036000DF91CF91089590E0FC01E859FF4F24916F
:10037000FC01EC55FF4F3491FC01E057FF4FE49135
:10038000EE23C9F0222339F0233001F1A8F4213003
:1003900019F1223029F1F0E0EE0FFF1FE458FF4F72
:1003A000A591B4918FB7F894EC91611126C0309566
:1003B0003E233C938FBF08952730A9F02830C9F021
:1003C000243049F7809180008F7D03C080918000A8
:1003D0008F7780938000DFCF84B58F7784BDDBCFAC
:1003E00084B58F7DFBCF8091B0008F778093B00074
:1003F000D2CF8091B0008F7DF9CF3E2BDACF3FB7BF
:10040000F89480911B0190911C01A0911D01B09165
:100410001E0126B5A89B05C02F3F19F00196A11D0E
:10042000B11D3FBFBA2FA92F982F8827BC01CD013E
:10043000620F711D811D911D42E0660F771F881F9D
:10044000991F4A95D1F708958F929F92AF92BF92CC
:100450000F931F93CF93DF93CDB7DEB7A1970FB65E
:10046000F894DEBF0FBECDBF19A2423008F44AE0B7
:100470008E010F5D1F4F842E912CB12CA12CA50154
:1004800094010E947104E62FB901CA01EA3044F5D3
:10049000E05DD801EE938D01232B242B252B79F7DA
:1004A00090E080E0109769F0FD0101900020E9F7ED
:1004B0003197AF014A1B5B0BBD0181E291E00E94C5
:1004C000A600A1960FB6F894DEBF0FBECDBFDF9198
:1004D000CF911F910F91BF90AF909F908F900895F3
:1004E000E95CD7CF1F920F920FB60F9211242F9372
:1004F0003F934F935F936F937F938F939F93AF93AC
:10050000BF93EF93FF9381E291E00E942401FF915A
:10051000EF91BF91AF919F918F917F916F915F917B
:100520004F913F912F910F900FBE0F901F901895F4
:100530001F920F920FB60F9211242F938F939F93B8
:10054000EF93FF93E0913101F09132018081E091CE
:100550003701F091380182FD1BC0908180913A01F2
:100560008F5F8F7320913B01821741F0E0913A0138
:10057000F0E0EF5DFE4F958F80933A01FF91EF9190
:100580009F918F912F910F900FBE0F901F901895F4
:100590008081F4CF1F920F920FB60F9211242F93E8
:1005A0003F938F939F93AF93BF9380911701909147
:1005B0001801A0911901B0911A013091160123E0A0
:1005C000230F2D3758F50196A11DB11D209316015B
:1005D0008093170190931801A0931901B0931A0109
:1005E00080911B0190911C01A0911D01B0911E01F1
:1005F0000196A11DB11D80931B0190931C01A09336
:100600001D01B0931E01BF91AF919F918F913F91BA
:100610002F910F900FBE0F901F90189526E8230F73
:100620000296A11DB11DD2CF789484B5826084BD9D
:1006300084B5816084BD85B5826085BD85B58160E6
:1006400085BD80916E00816080936E001092810064
:10065000809181008260809381008091810081601F
:1006600080938100809180008160809380008091E0
:10067000B10084608093B1008091B000816080936C
:10068000B00080917A00846080937A0080917A0033
:10069000826080937A0080917A00816080937A00F2
:1006A00080917A00806880937A001092C1008DE07A
:1006B0000E9487008CE00E9487008BE00E948700E8
:1006C0008AE00E948700E0913101F091320182E0DE
:1006D0008083E0912D01F0912E011082E0912F0195
:1006E000F09130018FEC808310923901E091350157
:1006F000F091360186E08083E0913301F09134017E
:10070000808180618083E0913301F09134018081A8
:1007100088608083E0913301F091340180818068AA
:100720008083E0913301F091340180818F7D80835B
:1007300010E4C0E0D0E010937C0080917A008064E7
:1007400080937A0080917A0086FDFCCF90917800AA
:100750008091790089279827892790932001809399
:100760001F016C01092E000CEE08FF0897FF5FC007
:100770006DE281E291E00E94460166277727CB0176
:100780006C197D098E099F094AE00E94240242E00B
:1007900050E062E171E081E291E00E94A600809168
:1007A0001F0190912001883C91050CF044C061E04C
:1007B0008DE00E94B30161E08CE00E94B30161E032
:1007C0008BE00E94B30160E08AE00E94B3010E94C6
:1007D000FF014B015C0184EFC82EDD24D394E12C92
:1007E000F12C0E94FF01681979098A099B09683E6A
:1007F000734081059105A8F321E0C21AD108E108F0
:10080000F10888EE880E83E0981EA11CB11CC1146B
:10081000D104E104F10429F7209709F48CCF0E9458
:100820001001882309F487CF0E94000084CF4AE09A
:10083000C701B601AACF9C01285C310924363105D5
:1008400070F461E08DE00E94B30161E08CE00E94F1
:10085000B30160E08BE00E94B30161E0B5CF8C5240
:1008600091408436910550F461E08DE00E94B3011F
:1008700060E08CE00E94B30161E0ECCF60E08DE0CD
:100880000E94B30161E0F5CFE1E2F1E01382128250
:1008900088EE93E0A0E0B0E084839583A683B783DD
:1008A00084E091E09183808385EC90E09587848754
:1008B00084EC90E09787868780EC90E0918B808B2A
:1008C00081EC90E0938B828B82EC90E0958B848B13
:1008D00086EC90E0978B868B118E128E138E148E81
:1008E0000895A1E21A2EAA1BBB1BFD010DC0AA1F71
:1008F000BB1FEE1FFF1FA217B307E407F50720F089
:10090000A21BB30BE40BF50B661F771F881F991F03
:100910001A9469F760957095809590959B01AC014C
:10092000BD01CF010895EE0FFF1F0590F491E02D5A
:060930000994F894FFCFCA
:10093600000000004601A600D30093010401E20076
:06094600F6000D0A00009E
:107E0000112484B714BE81FFF0D085E080938100F7
:107E100082E08093C00088E18093C10086E0809377
:107E2000C20080E18093C4008EE0C9D0259A86E02C
:107E300020E33CEF91E0309385002093840096BBD3
:107E4000B09BFECF1D9AA8958150A9F7CC24DD24C4
:107E500088248394B5E0AB2EA1E19A2EF3E0BF2EE7
:107E6000A2D0813461F49FD0082FAFD0023811F036
:107E7000013811F484E001C083E08DD089C08234E0
:107E800011F484E103C0853419F485E0A6D080C0E4
:107E9000853579F488D0E82EFF2485D0082F10E0AE
:107EA000102F00270E291F29000F111F8ED06801E7
:107EB0006FC0863521F484E090D080E0DECF843638
:107EC00009F040C070D06FD0082F6DD080E0C81688
:107ED00080E7D80618F4F601B7BEE895C0E0D1E017
:107EE00062D089930C17E1F7F0E0CF16F0E7DF06D8
:107EF00018F0F601B7BEE89568D007B600FCFDCFD4
:107F0000A601A0E0B1E02C9130E011968C91119780
:107F100090E0982F8827822B932B1296FA010C0160
:107F200087BEE89511244E5F5F4FF1E0A038BF0790
:107F300051F7F601A7BEE89507B600FCFDCF97BE46
:107F4000E89526C08437B1F42ED02DD0F82E2BD052
:107F50003CD0F601EF2C8F010F5F1F4F84911BD097
:107F6000EA94F801C1F70894C11CD11CFA94CF0C13
:107F7000D11C0EC0853739F428D08EE10CD085E9AC
:107F80000AD08FE07ACF813511F488E018D01DD067
:107F900080E101D065CF982F8091C00085FFFCCF94
:107FA0009093C60008958091C00087FFFCCF809118
:107FB000C00084FD01C0A8958091C6000895E0E648
:107FC000F0E098E1908380830895EDDF803219F02E
:107FD00088E0F5DFFFCF84E1DECF1F93182FE3DFCA
:107FE0001150E9F7F2DF1F91089580E0E8DFEE27F6
:047FF000FF270994CA
:027FFE00040479
:0400000300007E007B
:00000001FF
