:100000000C945D000C9485000C9485000C94850084
:100010000C9485000C9485000C9485000C9485004C
:100020000C9485000C9485000C9485000C9485003C
:100030000C9485000C9485000C9485000C9485002C
:100040000C94EE020C9485000C94BC020C94960265
:100050000C9485000C9485000C9485000C9485000C
:100060000C9485000C94850000000008000201003B
:100070000003040700000000000000000000000072
:10008000250028002B0000000000240027002A0083
:10009000040404040404040402020202020203032E
:1000A0000303030301020408102040800102040836
:1000B0001020010204081020880411241FBECFEF75
:1000C000D8E0DEBFCDBF11E0A0E0B1E0EEE0FAE0A5
:1000D00002C005900D92AC31B107D9F721E0ACE137
:1000E000B1E001C01D92A43CB207E1F710E0CDE5FC
:1000F000D0E004C02197FE010E94FF04CC35D10757
:10010000C9F70E9438030C9405050C94000090E098
:10011000FC01EC55FF4F249180579F4FFC018491C7
:10012000882399F090E0880F991FFC01EA57FF4F50
:10013000A591B491FC01E458FF4F859194918FB73C
:10014000F894EC91E22BEC938FBF0895AF92BF929D
:10015000CF92DF92EF92FF920F931F93CF93DF9393
:100160006C017B018B01040F151FEB015E01AE18C2
:10017000BF08C017D10759F06991D601ED91FC91E4
:100180000190F081E02DC6010995892B79F7C50111
:10019000DF91CF911F910F91FF90EF90DF90CF9063
:1001A000BF90AF900895FC01538D448D252F30E012
:1001B000842F90E0821B930B541710F0CF96089574
:1001C00001970895FC01918D828D981761F0A28DA1
:1001D000AE0FBF2FB11D5D968C91928D9F5F9F7367
:1001E000928F90E008958FEF9FEF0895FC01918D1D
:1001F000828D981731F0828DE80FF11D858D90E08A
:1002000008958FEF9FEF0895FC01918D228D892F26
:1002100090E0805C9F4F821B91098F73992708950E
:1002200087E291E00E94040121E0892B09F420E09B
:10023000822F089580E090E0892B29F00E94100120
:1002400081110C9400000895FC01A48DA80FB92F12
:10025000B11DA35ABF4F2C91848D90E001968F73EE
:100260009927848FA689B7892C93A089B1898C910D
:10027000837080648C93938D848D981306C002885C
:10028000F389E02D80818F7D80830895EF92FF9226
:100290000F931F93CF93DF93EC0181E0888F9B8DA9
:1002A0008C8D98131AC0E889F989808185FF15C063
:1002B0009FB7F894EE89FF896083E889F989808186
:1002C0008370806480839FBF81E090E0DF91CF9155
:1002D0001F910F91FF90EF900895F62E0B8D10E077
:1002E0000F5F1F4F0F731127E02E8C8D8E110CC0E6
:1002F0000FB607FCFACFE889F989808185FFF5CF31
:10030000CE010E942401F1CFEB8DEC0FFD2FF11DEA
:10031000E35AFF4FF0829FB7F8940B8FEA89FB896D
:1003200080818062CFCFCF93DF93EC01888D8823CB
:10033000B9F0AA89BB89E889F9898C9185FD03C048
:10034000808186FD0DC00FB607FCF7CF8C9185FF2D
:10035000F2CF808185FFEDCFCE010E942401E9CF4D
:10036000DF91CF91089590E0FC01E859FF4F24916F
:10037000FC01EC55FF4F3491FC01E057FF4FE49135
:10038000EE23C9F0222339F0233001F1A8F4213003
:1003900019F1223029F1F0E0EE0FFF1FE458FF4F72
:1003A000A591B4918FB7F894EC91611126C0309566
:1003B0003E233C938FBF08952730A9F02830C9F021
:1003C000243049F7809180008F7D03C080918000A8
:1003D0008F7780938000DFCF84B58F7784BDDBCFAC
:1003E00084B58F7DFBCF8091B0008F778093B00074
:1003F000D2CF8091B0008F7DF9CF3E2BDACF3FB7BF
:10040000F8948091210190912201A0912301B09153
:10041000240126B5A89B05C02F3F19F00196A11D08
:10042000B11D3FBFBA2FA92F982F8827BC01CD013E
:10043000620F711D811D911D42E0660F771F881F9D
:10044000991F4A95D1F70895FC0101900020E9F722
:100450003197AF01481B590BBC0187E291E00C9426
:10046000A6008F929F92AF92BF920F931F93CF934C
:10047000DF93CDB7DEB7A1970FB6F894DEBF0FBEFE
:10048000CDBF19A2423008F44AE08E010F5D1F4F24
:10049000842E912CB12CA12CA50194010E94C90499
:1004A000E62FB901CA01EA30F4F4E05DD801EE9319
:1004B0008D01232B242B252B79F790E080E01097DA
:1004C00019F0CD010E942402A1960FB6F894DEBF68
:1004D0000FBECDBFDF91CF911F910F91BF90AF9015
:1004E0009F908F900895E95CE1CFCF92DF92EF92D9
:1004F000FF92CF93DF936B017C016DE287E291E085
:100500000E944601EC0166277727CB016C197D0913
:100510008E099F094AE00E9431028C0F9D1FDF91D6
:10052000CF91FF90EF90DF90CF9008951F920F92A0
:100530000FB60F9211242F933F934F935F936F93B6
:100540007F938F939F93AF93BF93EF93FF9387E234
:1005500091E00E942401FF91EF91BF91AF919F9193
:100560008F917F916F915F914F913F912F910F905C
:100570000FBE0F901F9018951F920F920FB60F92FB
:1005800011242F938F939F93EF93FF93E091370163
:10059000F09138018081E0913D01F0913E0182FDB2
:1005A0001BC09081809140018F5F8F73209141012A
:1005B000821741F0E0914001F0E0E95DFE4F958F38
:1005C00080934001FF91EF919F918F912F910F9018
:1005D0000FBE0F901F9018958081F4CF1F920F923D
:1005E0000FB60F9211242F933F938F939F93AF9346
:1005F000BF9380911D0190911E01A0911F01B091A8
:10060000200130911C0123E0230F2D3758F501966E
:10061000A11DB11D20931C0180931D0190931E010B
:10062000A0931F01B093200180912101909122019C
:10063000A0912301B09124010196A11DB11D8093C9
:10064000210190932201A0932301B0932401BF9133
:10065000AF919F918F913F912F910F900FBE0F906F
:100660001F90189526E8230F0296A11DB11DD2CF29
:10067000789484B5826084BD84B5816084BD85B57D
:10068000826085BD85B5816085BD80916E00816089
:1006900080936E001092810080918100826080932F
:1006A0008100809181008160809381008091800031
:1006B0008160809380008091B10084608093B1005C
:1006C0008091B00081608093B00080917A00846056
:1006D00080937A0080917A00826080937A00809182
:1006E0007A00816080937A0080917A00806880939C
:1006F0007A001092C10089E00E948700E0913701E2
:10070000F091380182E08083E0913301F09134016F
:100710001082E0913501F09136018FEC80831092C8
:100720003F01E0913B01F0913C0186E08083E09144
:100730003901F0913A01808180618083E091390133
:10074000F0913A01808188608083E0913901F091D5
:100750003A01808180688083E0913901F0913A010B
:1007600080818F7D80830FEF10E094E6392E21E7A2
:10077000E22E20E0F22E30E0C32E30E0D32E109394
:10078000260100932501609125017091260177FDD6
:10079000B3C0072E000C880B990B4AE00E9431026F
:1007A00082E191E00E9424022091250130912601EE
:1007B000329EC001339E900D1124B8010E94B504F1
:1007C000072E000C880B990B97FF4CC00E947502F6
:1007D00086E191E00E94240289E191E00E942402D6
:1007E000C0912501D091260189E00E9487002097C1
:1007F000E9F560E089E00E94B3010E94FF014B012E
:100800005C0182E3482E512C612C712C0E94FF0167
:10081000681979098A099B09683E73408105910529
:10082000A8F3F1E04F1A51086108710828EE820E12
:1008300023E0921EA11CB11C4114510461047104F7
:1008400029F789E00E94870061E089E00E94B301F6
:100850008091250190912601019790932601809324
:10086000250191CF4AE00E943102B2CFCF3FD1059E
:1008700011F461E0BFCFF7018491833019F140F4A6
:100880008130B1F08230C9F0C038D10594F7B1CFD2
:10089000873011F1883041F18430B1F780918000C8
:1008A000806280938000D0938B00C0938A00A5CF94
:1008B00084B5806884BDC7BDA0CF84B5806284BD87
:1008C000C8BD9BCF80918000806880938000D093CA
:1008D0008900C093880091CF8091B0008068809398
:1008E000B000C093B30089CF8091B0008062809344
:1008F000B000C093B40081CFC114D10409F43FCF3C
:100900000E941001882309F43ACF0E94000037CFDB
:10091000E7E2F1E01382128288EE93E0A0E0B0E01B
:1009200084839583A683B78384E091E09183808359
:1009300085EC90E09587848784EC90E097878687A4
:1009400080EC90E0918B808B81EC90E0938B828B9C
:1009500082EC90E0958B848B86EC90E0978B868B75
:10096000118E128E138E148E089597FB072E16F497
:10097000009407D077FD09D00E94EB0407FC05D056
:100980003EF4909581959F4F0895709561957F4FA6
:100990000895A1E21A2EAA1BBB1BFD010DC0AA1FC0
:1009A000BB1FEE1FFF1FA217B307E407F50720F0D8
:1009B000A21BB30BE40BF50B661F771F881F991F53
:1009C0001A9469F760957095809590959B01AC019C
:1009D000BD01CF010895AA1BBB1B51E107C0AA1F8F
:1009E000BB1FA617B70710F0A61BB70B881F991FD0
:1009F0005A95A9F780959095BC01CD010895EE0F09
:0E0A0000FF1F0590F491E02D0994F894FFCFAC
:100A0E00000000004601A600D30093010401E2009D
:0C0A1E00F600203A20000D0A0025000020
:107E0000112484B714BE81FFF0D085E080938100F7
:107E100082E08093C00088E18093C10086E0809377
:107E2000C20080E18093C4008EE0C9D0259A86E02C
:107E300020E33CEF91E0309385002093840096BBD3
:107E4000B09BFECF1D9AA8958150A9F7CC24DD24C4
:107E500088248394B5E0AB2EA1E19A2EF3E0BF2EE7
:107E6000A2D0813461F49FD0082FAFD0023811F036
:107E7000013811F484E001C083E08DD089C08234E0
:107E800011F484E103C0853419F485E0A6D080C0E4
:107E9000853579F488D0E82EFF2485D0082F10E0AE
:107EA000102F00270E291F29000F111F8ED06801E7
:107EB0006FC0863521F484E090D080E0DECF843638
:107EC00009F040C070D06FD0082F6DD080E0C81688
:107ED00080E7D80618F4F601B7BEE895C0E0D1E017
:107EE00062D089930C17E1F7F0E0CF16F0E7DF06D8
:107EF00018F0F601B7BEE89568D007B600FCFDCFD4
:107F0000A601A0E0B1E02C9130E011968C91119780
:107F100090E0982F8827822B932B1296FA010C0160
:107F200087BEE89511244E5F5F4FF1E0A038BF0790
:107F300051F7F601A7BEE89507B600FCFDCF97BE46
:107F4000E89526C08437B1F42ED02DD0F82E2BD052
:107F50003CD0F601EF2C8F010F5F1F4F84911BD097
:107F6000EA94F801C1F70894C11CD11CFA94CF0C13
:107F7000D11C0EC0853739F428D08EE10CD085E9AC
:107F80000AD08FE07ACF813511F488E018D01DD067
:107F900080E101D065CF982F8091C00085FFFCCF94
:107FA0009093C60008958091C00087FFFCCF809118
:107FB000C00084FD01C0A8958091C6000895E0E648
:107FC000F0E098E1908380830895EDDF803219F02E
:107FD00088E0F5DFFFCF84E1DECF1F93182FE3DFCA
:107FE0001150E9F7F2DF1F91089580E0E8DFEE27F6
:047FF000FF270994CA
:027FFE00040479
:0400000300007E007B
:00000001FF
