:100000000C9462000C948A000C948A000C948A0070
:100010000C948A000C948A000C948A000C948A0038
:100020000C948A000C948A000C948A000C948A0028
:100030000C948A000C948A000C9424060C948A0078
:100040000C94BF040C948A000C948A000C948A00CF
:100050000C948A000C948A000C948A000C948A00F8
:100060000C9409050C948A0000000000230026006F
:10007000290000000000240027002A0000000000E2
:10008000250028002B0004040404040404040202D4
:100090000202020203030303030301020408102007
:1000A0004080010204081020010204081020000012
:1000B0000008000201000003040700000000000027
:1000C0000000C00811241FBECFEFD8E0DEBFCDBFB7
:1000D00011E0A0E0B1E0E2ECFBE102C005900D927E
:1000E000A633B107D9F722E0A6E3B1E001C01D9223
:1000F000AA34B207E1F710E0C2E6D0E004C02197CD
:10010000FE010E94380BC136D107C9F70E941B09B6
:100110000C94DF0D0C94000090E0FC01E255FF4FC1
:100120002491FC01E656FF4F3491FC01EA57FF4F42
:10013000E491EE23B1F0222339F02330E9F090F47A
:10014000213001F1223011F1F0E0EE0FFF1FE458F1
:10015000FF4FA591B4918FB7F894EC913E2B3C934F
:100160008FBF08952730A9F02830C9F0243061F7F7
:10017000809180008F7D03C0809180008F77809375
:100180008000E2CF84B58F7784BDDECF84B58F7DCC
:10019000FBCF8091B0008F778093B000D5CF809156
:1001A000B0008F7DF9CF982F2091FC0181E02132A2
:1001B00008F043C08091D8018111FCCF8091FB01F0
:1001C00032E03093D8019093D7019FEF9093D601FE
:1001D0001092D5012093D401ABEDB1E0E4EBF1E056
:1001E00090E0291331C01092B3019091B301880FB0
:1001F000892B8093B3018091B201813049F510922F
:10020000B2018091B3018093BB008091BC0083FD5B
:10021000F8CF85EC8093BC008091D8018230E1F367
:100220008091D6018F3FB1F08091D6018032A1F04C
:100230008091D601803391F084E01092DA0110921F
:10024000FC011092D90108953D9131939F5FC9CF70
:1002500085EEE0CF80E0F1CF82E0EFCF83E0EDCF1D
:100260009091D8019111FCCF91E09093D8014093E7
:10027000D7012FEF2093D6011092D501260F20939E
:10028000D4019093B3019091B301880F892B80938F
:10029000B3018091B2018130F9F41092B2018091E2
:1002A000B3018093BB008091BC0083FDF8CF85EC47
:1002B0008093BC008091D8018130E1F38091D50119
:1002C000861710F46091D501A4EBB1E0E2E9F1E00A
:1002D00080E0861303C0089585EEEACF9D91919347
:1002E0008F5FF7CF90910702963009F0B0F4E0915C
:1002F0000802F0E0E350FE4F8483809107028F5F95
:1003000080930702809108028F5F8093080280919A
:100310000802863010F0109208020895CF93DF9300
:1003200090E0FC01E656FF4F24918A579F4FFC0155
:1003300084918823D1F090E0880F991FFC01EE583A
:10034000FF4FA591B491FC01E458FF4FC591D491A2
:10035000623071F49FB7F8943C91822F809583238B
:100360008C93E8812E2B28839FBFDF91CF91089536
:100370008FB7F894EC912E2B2C938FBFF6CF85ED91
:100380008093BC008091BC0084FDFCCF1092D8010A
:10039000089520915901260F3327331F213231054B
:1003A000ECF42091D801FC0190E080E0243069F069
:1003B00082E00895A09159012191AC01475C5E4F04
:1003C000A40FB52FB11D2C930196861798F3809139
:1003D0005901680F6093590180E0089581E0089504
:1003E0000895E091380180913701E81730F4F0E08A
:1003F000EE56FE4F808190E008958FEF9FEF0895B5
:1004000090913801809137012FEF3FEF981748F412
:10041000E92FF0E0EE56FE4F208130E09F5F909391
:100420003801C90108958091370190913801891BE5
:10043000990B0895CF92DF92EF92FF920F931F9343
:10044000CF93DF937C01CB018A012091D901222334
:1004500089F0EB016B01C40ED51ECC15DD0569F0EA
:100460006991D701ED91FC910190F081E02DC701D8
:100470000995F3CF642F0E94C901C801DF91CF9184
:100480001F910F91FF90EF90DF90CF900895CF9341
:10049000DF931F92CDB7DEB769832091D901222364
:1004A000F9F02091FC01203258F021E030E0FC010D
:1004B0003383228390E080E00F90DF91CF91089505
:1004C0008091DA01E82FF0E0E552FE4F99819083A8
:1004D0008F5F8093DA018093FC0181E090E0ECCFA4
:1004E00061E0CE0101960E94C901F7CF90E080E063
:1004F0000895813061F028F0823079F0833099F0EE
:100500000895662311F02D9A08952D980895662375
:1005100011F02C9A08952C980895662311F02B9AC7
:1005200008952B980895662311F02A9A08952A9821
:1005300008955C9827E030E070E0AB01022E02C025
:10054000559547950A94E2F740FF1FC0289A5F9A95
:100550005F982150310988F727E030E0E82FF0E07C
:10056000E35DFE4F808190E0AC01022E02C0559504
:1005700047950A94E2F740FF0AC0289A5F9A5F986D
:100580002150310988F75C9A08952898E0CF28987F
:10059000F5CFCF93DF93362FBA01DC0112968D9100
:1005A0009C9141E04093D9013093FB011092DA0114
:1005B0001092FC01422F50E0DC01ED91FC91028091
:1005C000F381E02D0995EC0181E00E94D30081E0E8
:1005D000CD2B09F480E0DF91CF9108951F93CF9345
:1005E000DF93122FDC0112968D919C9121E02093D4
:1005F000D9016093FB011092DA011092FC01DC0139
:10060000ED91FC910190F081E02D642F0995EC01B2
:1006100081E0111180E00E94D30081E0CD2B09F42C
:1006200080E0DF91CF911F9108950F931F93CF9397
:10063000DF93EC01862F8A0141E061E00E943001E6
:1006400010923801809337018A819B81DC01ED9102
:10065000FC910084F185E02D0995892B89F08A8130
:100660009B81DC01ED91FC910284F385E02D0995DD
:10067000F801808381E0DF91CF911F910F91089560
:1006800080E0F9CFCF92DF92EF92FF920F931F930A
:10069000CF93DF936C01862FD42FC52FE22EF12C40
:1006A000622F213208F060E241E00E943001109296
:1006B0003801809337010D2F1C2FD0E0C0E0D60108
:1006C00012968D919C91DC01ED91FC910084F18555
:1006D000E02D0995892B91F0CE15DF057CF4F6010C
:1006E00082819381DC01ED91FC910284F385E02D00
:1006F0000995F80181938F012196E1CF81E0EC16F5
:10070000FD0609F080E0DF91CF911F910F91FF90DE
:10071000EF90DF90CF90089580910701882309F42E
:100720006DC080918E0190918F01019690938F0101
:1007300080938E0180918E0190918F01883E93402D
:1007400008F45CC010928F0110928E0180918D018F
:100750008F5F80938D0180918D018C3308F44EC0A2
:1007600010928D01809190018F5F80939001809114
:1007700090018C3368F010929001809108018F5F96
:100780008093080180910801883110F010920801CF
:1007900080918B01882391F19091900180910601C5
:1007A00098132CC09091080180910501981326C0E0
:1007B00081E080931D0210921E0284E690E09093E7
:1007C000200280931F0222E330E030932202209324
:1007D0002102909324028093230224E02093250297
:1007E00020932602909328028093270284EF91E0C1
:1007F00090932A028093290210921D0208950F936C
:100800001F93CF93DF93CDB7DEB729970FB6F89438
:10081000DEBF0FBECDBF70E024E6829F600D711D6C
:1008200011247F936F9381E391E09F938F938E01C7
:100830000F5F1F4F1F930F930E943E0B1E821F825C
:1008400018861986D8010F900F900F900F900F9077
:100850000F9080E04FE7ED91E1110DC0E6E0F0E090
:10086000EC0FFD1FE80FF11D9FEF843008F04EC024
:1008700091938F5FFACF843088F7EE3299F4882312
:1008800071F0682F6150770BFB0126E030E02C0FF0
:100890003D1FE20FF31F90819F779083DCCF4E8343
:1008A00081E0D9CF282F30E090ED9E0F9A3070F480
:1008B000F0E0ED50FF4F908166E070E06C0F7D1F1F
:1008C000260F371FF90190838F5FC5CF9FE99E0FD9
:1008D0009A3120F4F0E0E855FF4FEDCF9FEB9E0FEB
:1008E0009A3120F4F0E0E853FF4FE5CF9FEBED3273
:1008F00019F32CF49FEFE032F9F296EBDDCF9FE78E
:10090000EE32D1F297EFEF35B9F2F7CFFE0136961E
:1009100023E030E083818F3F31F42150310931975A
:100920002F3F3207B9F783E090E02F3F320751F4B1
:100930002FEF8F3F9807C1F0FC01E050FF4F20835D
:100940000197F7CF8F3F980779F0E6E0F0E0EC0FE2
:10095000FD1FE20FF31F4081FC01E050FF4F408379
:10096000215031090197E1CF29960FB6F894DEBFE7
:100970000FBECDBFDF91CF911F910F9108951F92B0
:100980000F920FB60F9211242F933F938F939F9343
:10099000AF93BF938091810190918201A0918301D7
:1009A000B09184013091800123E0230F2D3758F559
:1009B0000196A11DB11D2093800180938101909328
:1009C0008201A0938301B093840180917C01909176
:1009D0007D01A0917E01B0917F010196A11DB11D05
:1009E00080937C0190937D01A0937E01B0937F0161
:1009F000BF91AF919F918F913F912F910F900FBE1B
:100A00000F901F90189526E8230F0296A11DB11D87
:100A1000D2CF1F920F920FB60F9211242F933F93B4
:100A20004F935F936F937F938F939F93AF93BF93F6
:100A3000EF93FF938091B900887F803609F44AC014
:100A4000F0F5883209F4A5C018F5803109F499C091
:100A5000B8F4882309F4F5C0883009F492C0FF91F6
:100A6000EF91BF91AF919F918F917F916F915F9126
:100A70004F913F912F910F900FBE0F901F9018959F
:100A8000883109F486C0803251F78093D60114C0B2
:100A9000803409F49BC040F48033B9F38833F9F60D
:100AA0008093D60185ECAEC0803509F483C08835CB
:100AB00009F494C0883499F60E94BF01D0CF8839D8
:100AC00009F48AC038F5883729F050F4883611F0D7
:100AD000803729F683E08093D80110927B0155C0BE
:100AE000883809F479C0803919F0803809F0B7CF17
:100AF00080917B01803208F06FC0E0917B0181E042
:100B00008E0F80937B018091BB00F0E0E55AFE4F91
:100B100080833BC0803B39F0D0F4803A09F477C041
:100B2000883A09F09CCF84E08093D80110925A0152
:100B300010925901F0E0E0E009958091590181118E
:100B40000FC081E0809359011092390109C0803CA7
:100B500009F4A8CF883C09F4A5CF883B09F07FCFE2
:100B6000E0915A0181E08E0F80935A01F0E0E75C3A
:100B7000FE4F80818093BB0090915A018091590172
:100B800029C08091B3018093BB0085EC8093BC00A9
:100B900066CF9091D5018091D401981758F5E091D6
:100BA000D50181E08E0F8093D501F0E0EC54FE4F2B
:100BB0008081E9CFE091D50181E08E0F8093D5014E
:100BC0008091BB00F0E0EC54FE4F80839091D50102
:100BD0008091D4019817C8F285E8D8CFE091D5016B
:100BE00081E08E0F8093D5018091BB00F0E0EC5442
:100BF000FE4F80838091D70181115ECF81E0809389
:100C0000B20184EA8093BC001092D80128CF85EC11
:100C10008093BC001092D80180917B01803230F427
:100C2000E0917B01F0E0E55AFE4F108260917B017C
:100C300070E08BE591E0F0E0E0E0099510927B0137
:100C40000ECF1092D60138CF1F920F920FB60F928F
:100C500011249F92AF92BF92CF92DF92EF92FF92B8
:100C60000F931F932F933F934F935F936F937F93B4
:100C70008F939F93AF93BF93CF93DF93EF93FF93A4
:100C800080910401815080930401809104018111BD
:100C900046C184E08093040140912C02411106C0BA
:100CA00080913002811102C0D1E011C080912E02EA
:100CB0008F5F80932E02D0912D02DD2309F410C1A5
:100CC000823490F310922D0210922E02D0E0809187
:100CD0002B02282F30E050E0082E02C05595479592
:100CE0000A94E2F740FF05C16FEFDD2321F02050A9
:100CF0003F4FD9016C910E94990280912B028F5F26
:100D0000843008F0FBC080932B0280912F02C091A9
:100D10003002C8239FEF9D0FC923C827809131025D
:100D2000C81791F110E000E0802F209131022C27AC
:100D300030E0002E02C0359527950A94E2F720FF97
:100D40001CC02091300230E0002E02C0359527955E
:100D50000A94E2F720FFD5C061E0DD2361F06091E5
:100D60002F0270E0002E02C0759567950A94E2F795
:100D70006095709561700E9479020F5F1F4F04307B
:100D8000110591F6C093310280911D0281112AC094
:100D900080911F0290912002892B21F180912302E2
:100DA00090912402892B51F480911E02813009F424
:100DB000D9C008F4C5C0823009F4FEC08091230276
:100DC00090912402892B49F0809123029091240272
:100DD0000197909324028093230280911E02811137
:100DE00006C15B9880910A0290910B0282339105B3
:100DF00008F40DC110920B0210920A0298E8C92E55
:100E000091E0D92E25E8E22E21E0F22E0DEF11E03F
:100E1000E801BB24B394D601ED916D01F0E0EE0F33
:100E2000FF1FE859FF4FA591B491AC90F701819154
:100E30007F01A82299249394A110912CD8011F9688
:100E40008C91981639F0A110D4C08B2D0E9472019C
:100E5000F8019786A11015C08A899B898531910573
:100E600040F083709927892B21F48B2D80680E9494
:100E700072018A899B898F3F980719F001969B8B95
:100E80008A8B0F5F1F4F2296B39424E0B212C3CF18
:100E900080913202882309F40CC1809134028111BF
:100EA00008C1E8E6F0E0A591B4918C9180913F02F1
:100EB000882329F080913A02882309F4AEC020915A
:100EC000380230913902809135029091360228170C
:100ED000390708F44BC110923C0210923B02C8C083
:100EE000853108F4F4CE81E080932D0210922E0219
:100EF000DBCE20503F4FF9016081FDCE10922B02D6
:100F000004CF60912F0270E0002E02C075956795A6
:100F10000A94E2F760957095617077272CCF9091D5
:100F200004018091360198132FCF80912B028823E2
:100F300029F081506FEF0E94990226CF83E0FACF0B
:100F40008091210290912202892B61F080912102EF
:100F500090912202909324028093230281E0809357
:100F60001E022CCF80912602815080932602809110
:100F70002602882359F080911F02909120029093BD
:100F800024028093230210921E0218CF8091250222
:100F9000809326028091290290912A029093240244
:100FA0008093230282E080931E0280912902909117
:100FB0002A02892B09F002CF809127029091280202
:100FC000892BC9F280912702909128020197909372
:100FD0002802809327028091270290912802892B72
:100FE00051F61092200210921F025B9AE7CE5B9A94
:100FF000F9CE8A899B89459738F08B2D806C0E94A9
:1010000072011B8A1A8A24CF8B2D8064F8CF019637
:1010100090930B0280930A023BCF80914002909103
:101020004102A0914202B09143020196A11DB11D5F
:101030008093400290934102A0934202B0934302F6
:101040002091380230913902809135029091360218
:101050002817390708F087C080913802909139022B
:1010600090933C0280933B02109239021092380216
:1010700080913302811118C080913B0290913C0213
:1010800090933E0280933D028091400290914102F4
:10109000A0914202B0914302809344029093450292
:1010A000A0934602B093470280913F0281111092B3
:1010B0003F028091150290911602A0911702B09103
:1010C0001802892B8A2B8B2BB9F080910002811199
:1010D00013C08091150290911602A0911702B09151
:1010E00018020197A109B109809315029093160285
:1010F000A0931702B09318028091FF01811110C0D4
:101100008091150290911602A0911702B0911802D9
:101110008093190290931A02A0931B02B0931C02B1
:10112000E091FD01F091FE01309709F00995FF91E2
:10113000EF91DF91CF91BF91AF919F918F917F916F
:101140006F915F914F913F912F911F910F91FF9060
:10115000EF90DF90CF90BF90AF909F900F900FBE19
:101160000F901F90189590E080E07ACF8091380220
:10117000909139020196909339028093380278CF8A
:10118000EDEFF1E011821082128213821286138633
:101190001486168615861786108A118A138A128A73
:1011A000158A148A178A168A108E118E128E138E43
:1011B000148E158E168E178E10A211A213A212A2D3
:1011C00015A214A217A216A210A611A613A612A663
:1011D00015A614A616A617A610AA11AA12AA13AA33
:1011E00014AA15AA16AA17AA88EB9BE091AF80AFA4
:1011F0002FE022AF94AF83AF15AE17AE16AE1092AC
:101200003E0210923D0210923F0210924002109254
:101210004102109242021092430210924402109234
:101220004502109246021092470281E080934802E4
:10123000809349020895789484B5826084BD84B512
:10124000816084BD85B5826085BD85B5816085BDC1
:1012500080916E00816080936E0010928100809179
:101260008100826080938100809181008160809301
:101270008100809180008160809380008091B10026
:1012800084608093B1008091B00081608093B00051
:1012900080917A00846080937A0080917A008260E5
:1012A00080937A0080917A00816080937A008091A7
:1012B0007A00806880937A001092C1008CE893E0F5
:1012C0009093FE018093FD0161E08DE00E948E010C
:1012D00061E08CE00E948E0161E08BE00E948E0153
:1012E00061E08AE00E948E018DE00E948C008CE01B
:1012F0000E948C008BE00E948C008AE00E948C008F
:1013000061E084E00E948E0161E087E00E948E012E
:1013100061E088E00E948E016FEF80E00E949902F8
:1013200061E083E00E948E0183E00E948C0062E015
:101330008FE00E948E0162E080E10E948E0162E0F7
:1013400081E10E948E01E5E9F0E0E491E0938801FB
:10135000E9EAF0E0E491E0938501E6E9F0E0E49168
:10136000E0938901EAEAF0E0E491E0938601E7E99D
:10137000F0E0E491E0938A01EBEAF0E0E491E0939D
:1013800087018FEA87BD80916E00826080936E0036
:1013900080912C028F6080932C0200E010E085E0A9
:1013A000D82E94E0C92ED1E0EE24E394F12C32E063
:1013B000B32E80910702C0E01816B4F4E091090240
:1013C000F0E0E350FE4FC48180910702815080938A
:1013D0000702809109028F5F8093090280910902C0
:1013E000863010F01092090280919101823009F448
:1013F000A4C058F48823F9F0813009F47DC00115A8
:101400001105B9F20E940000D4CF843009F4CCC099
:1014100008F4AFC0853099F7C13009F0E3C080917E
:101420002C02837F80932C0210929101C0938B0138
:1014300080912F0255C060919001809108010E9417
:10144000FF03C23029F5D0931D0283E00E948C0077
:1014500010921E021092200210921F02109222027D
:10146000109221021092240210922302D09325029E
:10147000D0932602F0922802E092270210922A02CC
:101480001092290210921D0283E080939101B7CF40
:10149000C13889F480912C02807F836080932C0274
:1014A000D09391011092070110928F0110928E013A
:1014B00010928D01A4CFC338C9F480918C018111A1
:1014C0009ECFD0938C0190918B0181E0911180E0AF
:1014D00080938B0190918B0180912F02992311F0C1
:1014E000816001C08E7F80932F0289CFC33C09F0B9
:1014F00086CF10928C0183CFC13049F480912C02A9
:101500008C7F8C6080932C02B092910178CFCF7742
:10151000C33009F074CF809108018F5F8093080178
:1015200080910801883110F01092080160919001BB
:10153000809108010E94FF0362CFC13051F4809175
:101540002C02837F80932C0210929101C09307019B
:1015500056CFCF77C33009F052CF809190018F5F83
:1015600080939001809190018C3300F31092900150
:10157000DDCF60910601809105010E94FF038C2F51
:101580008F77823419F41092910139CFC13809F064
:1015900036CF80912C02807F836080932C02C09292
:1015A000910110928B012BCFC13049F480912C0214
:1015B0008C7F8C6080932C02D092910120CFCF77CA
:1015C000C33009F01CCF809105018F5F883138F45A
:1015D000809305016091060180910501ABCF1092C7
:1015E0000501F8CFCF77C33009F009CF809106010C
:1015F0008F5F8C3318F480930601ECCF10920601B4
:10160000E9CF2F923F924F925F926F927F928F928B
:101610009F92AF92BF92CF92DF92EF92FF920F9381
:101620001F93CF93DF93CDB7DEB7CA1BDB0B0FB68B
:10163000F894DEBF0FBECDBF09942A883988488848
:101640005F846E847D848C849B84AA84B984C884DE
:10165000DF80EE80FD800C811B81AA81B981CE0FD5
:10166000D11D0FB6F894DEBF0FBECDBFED010895BA
:10167000EE0FFF1F0590F491E02D0994AEE0B0E06D
:10168000E4E4FBE00C940F0B0D891E8986E08C834B
:101690001A8309838FEF9FE79E838D83AE01475E98
:1016A0005F4F6F89788DCE0101960E94610B2F816B
:1016B0003885020F131FF80110822E96E4E00C9477
:1016C0002B0BABE0B0E0E7E6FBE00C94010B7C01F8
:1016D0003B018A01FC0117821682838181FFC8C108
:1016E000CE0101965C01F7019381F30193FD859191
:1016F00093FF81913F01882309F453C1853239F466
:1017000093FD859193FF81913F01853229F4B701C3
:1017100090E00E94510DE7CF912C212C312CFFE15C
:10172000F31538F08B3211F190F4803209F18332E5
:1017300029F137FC3CC020ED280F2A3050F536FE49
:1017400020C08AE0989E200D1124922E06C08D3272
:1017500091F0803371F7689430F8F30193FD85912F
:1017600093FF81913F018111DACF21C0689431F854
:10177000689432F8F2CF689433F8EFCF689434F875
:10178000ECCFEAE02E9E200D1124222E689435F82D
:10179000E4CF8E3229F436FC04C1689436F8DDCFEC
:1017A0008C3619F4689437F8D8CF8836B1F2982F70
:1017B0009F7D95549330E0F08336A1F18337C1F1DA
:1017C000833509F063C02801F2E04F0E511CF80187
:1017D000C080D180692D70E036FC02C06FEF7FEFD2
:1017E000C6010E943B0D4C01689437F882010AC083
:1017F0000C5F1F4FFFE3F98388248394912C6501CC
:10180000E89437F833FE2DC0522C8114910471F501
:10181000552009F468CFB70180E290E00E94510D95
:101820005A94F6CFF801808189830E5F1F4FE4CF71
:101830002801F2E04F0E511CF801C080D180692DC3
:1018400070E036FC02C06FEF7FEFC6010E94460DCC
:101850004C018201D5CFB70180E290E00E94510D8A
:101860002A942814190409F0B0F7CECFF60137FCFA
:10187000859137FE81916F01B70190E00E94510D73
:1018800051105A94F1E08F1A9108BFCF843619F0A5
:10189000893609F077C0F80137FE6BC0608171812D
:1018A000828193810C5F1F4FF32DFF763F2E97FFB0
:1018B00009C090958095709561957F4F8F4F9F4F90
:1018C000689437F82AE030E0A5010E94810DC82E07
:1018D000CA188C2C432C36FE0CC0E89440F8C9146E
:1018E00040F434FE05C032FC03C0F32DFE7E4F2EC3
:1018F000892C44FE95C0FE01EC0DF11D80818033E2
:1019000009F087C0242D297E422E842D8870582E00
:1019100043FC95C040FE8FC09C2C821418F42C0C04
:10192000922C981844FE91C0B70180E390E00E9489
:10193000510D42FE09C088E790E041FE02C088E5F3
:1019400090E0B7010E94510DC91408F48AC0CA94EE
:10195000D12C9FEFC91AD90ACA0CDB1CF60182915F
:101960006F01B70190E00E94510DAC14BD04B1F7B6
:101970004FCF60817181072E000C880B990B0E5F91
:101980001F4F92CFD32CE894D4F82AE030E085376B
:1019900039F1232D297FD22E8F3601F148F4883575
:1019A000A9F0F701868197812B96E2E10C941D0B3B
:1019B000803749F08837A9F7D4FE02C06894D2F87E
:1019C00020E130E00DC06894D4F8F6CF34FE03C0B7
:1019D000822F8660D82E20E132E002C028E030E07D
:1019E000F801D7FE0FC060817181828193810C5F05
:1019F0001F4FA5010E94810DC82ECA183D2CE894E6
:101A000037F867CF6081718190E080E00E5F1F4FF3
:101A1000F0CF42FC02C0839478CF8394839475CF37
:101A2000842D867809F471CFF6CFB70180E290E07B
:101A30000E94510D83948214C0F3512C73CF522C09
:101A40005818821408F46ECFF8CF842D867809F4E4
:101A50007BCF8BE241FE80E247FC8DE2B70190E054
:101A600071CFB70180E390E00E94510D9A946CCF42
:101A70008FEF9FEF99CFFC010590615070400110EE
:101A8000D8F7809590958E0F9F1F0895FC016150A7
:101A9000704001900110D8F7809590958E0F9F1F90
:101AA00008950F931F93CF93DF93182F092FEB0106
:101AB0008B8181FD09C01FEF0FEF812F902FDF91E8
:101AC000CF911F910F91089582FF14C02E813F8105
:101AD0008C819D81281739073CF4E881F981CF0179
:101AE00001969983888310838E819F8101969F83BD
:101AF0008E83E3CFE885F985812F0995892BA1F3A2
:101B0000DACFFA01AA27283051F1203181F1E89487
:101B10006F936E7F6E5F7F4F8F4F9F4FAF4FB1E0E0
:101B20003ED0B4E03CD0670F781F891F9A1FA11DDB
:101B3000680F791F8A1F911DA11D6A0F711D811DDC
:101B4000911DA11D20D009F468943F912AE0269FA1
:101B500011243019305D3193DEF6CF010895462F00
:101B60004770405D4193B3E00FD0C9F7F6CF462FE1
:101B70004F70405D4A3318F0495D31FD405241934A
:101B800002D0A9F7EACFB4E0A69597958795779507
:101B90006795BA95C9F700976105710508959B018E
:101BA000AC010A2E06945795479537952795BA9517
:101BB000C9F7620F731F841F951FA01D0895F89425
:021BC000FFCF55
:101BC200FFFFFFFF04061E010C8883A7A1868E90EB
:101BD2008BCFF1B6C7B6ABA38C98AF9287E3B6B6FC
:101BE200B691B6C0F9A4B0999282F88090F1F2F45D
:061BF200F8253033640009
:107E0000112484B714BE81FFF0D085E080938100F7
:107E100082E08093C00088E18093C10086E0809377
:107E2000C20080E18093C4008EE0C9D0259A86E02C
:107E300020E33CEF91E0309385002093840096BBD3
:107E4000B09BFECF1D9AA8958150A9F7CC24DD24C4
:107E500088248394B5E0AB2EA1E19A2EF3E0BF2EE7
:107E6000A2D0813461F49FD0082FAFD0023811F036
:107E7000013811F484E001C083E08DD089C08234E0
:107E800011F484E103C0853419F485E0A6D080C0E4
:107E9000853579F488D0E82EFF2485D0082F10E0AE
:107EA000102F00270E291F29000F111F8ED06801E7
:107EB0006FC0863521F484E090D080E0DECF843638
:107EC00009F040C070D06FD0082F6DD080E0C81688
:107ED00080E7D80618F4F601B7BEE895C0E0D1E017
:107EE00062D089930C17E1F7F0E0CF16F0E7DF06D8
:107EF00018F0F601B7BEE89568D007B600FCFDCFD4
:107F0000A601A0E0B1E02C9130E011968C91119780
:107F100090E0982F8827822B932B1296FA010C0160
:107F200087BEE89511244E5F5F4FF1E0A038BF0790
:107F300051F7F601A7BEE89507B600FCFDCF97BE46
:107F4000E89526C08437B1F42ED02DD0F82E2BD052
:107F50003CD0F601EF2C8F010F5F1F4F84911BD097
:107F6000EA94F801C1F70894C11CD11CFA94CF0C13
:107F7000D11C0EC0853739F428D08EE10CD085E9AC
:107F80000AD08FE07ACF813511F488E018D01DD067
:107F900080E101D065CF982F8091C00085FFFCCF94
:107FA0009093C60008958091C00087FFFCCF809118
:107FB000C00084FD01C0A8958091C6000895E0E648
:107FC000F0E098E1908380830895EDDF803219F02E
:107FD00088E0F5DFFFCF84E1DECF1F93182FE3DFCA
:107FE0001150E9F7F2DF1F91089580E0E8DFEE27F6
:047FF000FF270994CA
:027FFE00040479
:0400000300007E007B
:00000001FF
